{
  "contractName": "Transaction",
  "abi": [
    {
      "inputs": [],
      "name": "transactionCount",
      "outputs": [
        {
          "internalType": "uint256",
          "name": "",
          "type": "uint256"
        }
      ],
      "stateMutability": "view",
      "type": "function",
      "constant": true
    },
    {
      "inputs": [
        {
          "internalType": "uint256",
          "name": "",
          "type": "uint256"
        }
      ],
      "name": "transactions",
      "outputs": [
        {
          "internalType": "uint256",
          "name": "id",
          "type": "uint256"
        },
        {
          "internalType": "address",
          "name": "client",
          "type": "address"
        },
        {
          "internalType": "uint256",
          "name": "amount",
          "type": "uint256"
        },
        {
          "internalType": "string",
          "name": "description",
          "type": "string"
        },
        {
          "internalType": "bool",
          "name": "approved",
          "type": "bool"
        }
      ],
      "stateMutability": "view",
      "type": "function",
      "constant": true
    },
    {
      "inputs": [
        {
          "internalType": "address",
          "name": "_client",
          "type": "address"
        },
        {
          "internalType": "uint256",
          "name": "_amount",
          "type": "uint256"
        },
        {
          "internalType": "string",
          "name": "_description",
          "type": "string"
        }
      ],
      "name": "addTransaction",
      "outputs": [],
      "stateMutability": "nonpayable",
      "type": "function"
    },
    {
      "inputs": [
        {
          "internalType": "uint256",
          "name": "_id",
          "type": "uint256"
        }
      ],
      "name": "approveTransaction",
      "outputs": [],
      "stateMutability": "nonpayable",
      "type": "function"
    }
  ],
  "bytecode": "0x608060405234801561001057600080fd5b506105ec806100206000396000f3fe608060405234801561001057600080fd5b506004361061004c5760003560e01c8063090c85a414610051578063242232d1146100665780639ace38c214610079578063b77bf600146100a6575b600080fd5b61006461005f36600461035f565b6100bb565b005b610064610074366004610429565b610173565b61008c610087366004610429565b6101fa565b60405161009d9594939291906104be565b60405180910390f35b6100ae6102c0565b60405161009d91906104b5565b600180549060006100cb83610579565b90915550506040805160a081018252600180548083526001600160a01b038781166020808601918252858701898152606087018981526000608089018190529586528583529790942086518155915194820180546001600160a01b0319169590931694909417909155905160028201559251805192939261015292600385019201906102c6565b50608091909101516004909101805460ff1916911515919091179055505050565b60008111801561018557506001548111155b6101aa5760405162461bcd60e51b81526004016101a19061047e565b60405180910390fd5b60008181526020819052604090206004015460ff16156101dc5760405162461bcd60e51b81526004016101a190610447565b6000908152602081905260409020600401805460ff19166001179055565b600060208190529081526040902080546001820154600283015460038401805493946001600160a01b03909316939192916102349061053e565b80601f01602080910402602001604051908101604052809291908181526020018280546102609061053e565b80156102ad5780601f10610282576101008083540402835291602001916102ad565b820191906000526020600020905b81548152906001019060200180831161029057829003601f168201915b5050506004909301549192505060ff1685565b60015481565b8280546102d29061053e565b90600052602060002090601f0160209004810192826102f4576000855561033a565b82601f1061030d57805160ff191683800117855561033a565b8280016001018555821561033a579182015b8281111561033a57825182559160200191906001019061031f565b5061034692915061034a565b5090565b5b80821115610346576000815560010161034b565b600080600060608486031215610373578283fd5b83356001600160a01b0381168114610389578384fd5b92506020848101359250604085013567ffffffffffffffff808211156103ad578384fd5b818701915087601f8301126103c0578384fd5b8135818111156103d2576103d26105a0565b604051601f8201601f19168101850183811182821017156103f5576103f56105a0565b60405281815283820185018a101561040b578586fd5b81858501868301378585838301015280955050505050509250925092565b60006020828403121561043a578081fd5b5035919050565b15159052565b6020808252601c908201527f5472616e73616374696f6e20616c726561647920617070726f76656400000000604082015260600190565b6020808252601a908201527f5472616e73616374696f6e20646f6573206e6f74206578697374000000000000604082015260600190565b90815260200190565b6000868252602060018060a01b0387168184015285604084015260a0606084015284518060a0850152825b818110156105055786810183015185820160c0015282016104e9565b81811115610516578360c083870101525b50601f01601f1916830160c001915061053490506080830184610441565b9695505050505050565b60028104600182168061055257607f821691505b6020821081141561057357634e487b7160e01b600052602260045260246000fd5b50919050565b600060001982141561059957634e487b7160e01b81526011600452602481fd5b5060010190565b634e487b7160e01b600052604160045260246000fdfea2646970667358221220f90006cdaa6de81c0dd3881fe6ca1aa603a5792ddb8654d613744ffc32cb8e1164736f6c63430008000033",
  "immutableReferences": {},
  "source": "// SPDX-License-Identifier: MIT\r\npragma solidity ^0.8.0;\r\n\r\ncontract Transaction {\r\n    struct TransactionData {\r\n        uint id;\r\n        address client;\r\n        uint amount;\r\n        string description;\r\n        bool approved;\r\n    }\r\n    \r\n    mapping(uint => TransactionData) public transactions;\r\n    uint public transactionCount;\r\n\r\n    // Add new transactions to the blockchain\r\n    function addTransaction(address _client, uint _amount, string memory _description) public {\r\n        transactionCount++;\r\n        transactions[transactionCount] = TransactionData(\r\n            transactionCount, \r\n            _client, \r\n            _amount, \r\n            _description, \r\n            false\r\n        );\r\n    }\r\n\r\n    // Approve transactions on the blockchain\r\n    function approveTransaction(uint _id) public {\r\n        require(_id > 0 && _id <= transactionCount, \"Transaction does not exist\");\r\n        require(!transactions[_id].approved, \"Transaction already approved\");\r\n        transactions[_id].approved = true;\r\n    }\r\n}",
  "sourcePath": "D:\\TRM\\Blockchain\\contracts\\Transaction.sol",
  "compiler": {
    "name": "solc",
    "version": "0.8.0+commit.c7dfd78e.Emscripten.clang"
  },
  "schemaVersion": "3.4.16",
  "updatedAt": "2025-01-25T19:12:22.018Z",
  "networkType": "ethereum",
  "devdoc": {
    "kind": "dev",
    "methods": {},
    "version": 1
  },
  "userdoc": {
    "kind": "user",
    "methods": {},
    "version": 1
  }
}